:020000020000FC
:100000000C94E0040C94D0050C94A4050C94E0042A
:100010000C94E0040C94E0040C94C1060C94E004ED
:100020000C94E0040C94E0040C94E0040C94E004C0
:100030000C94E0040C94E0040C94E0040C94E004B0
:100040000C9465050C94E0040C94E0040C94E0041A
:100050000C94E0040C94E0040C94E0040C94E00490
:100060000C94E0040C94E004204C61727320444929
:100070005920475053444F200400436F756E7465F8
:10008000722059542076312E303304004E6F207088
:10009000756C73652E2020202020202004005365DD
:1000A0007420746F2044656661756C7420200400B0
:1000B00057616974696E672E2E2E20202020202023
:1000C000040047617465203130303030730447617B
:1000D000746520313030307304004C6173742046F5
:1000E00072657175656E6379203D0400303132337D
:1000F00034353637383941424344454603E008B980
:100100001ED003E008B91BD003E008B918D002E004
:1001100008B915D002E008B912D0A5D008E008B996
:100120000ED000E008B90BD00CE008B908D000E010
:1001300008B905D006E008B902D00BD0089545985B
:10014000449A91D044980895459A449A86D0449808
:10015000089500E008B9F3DF01E008B9F0DF089581
:1001600008E008B9ECDF00E008B9E9DF08950CE029
:1001700008B9E5DF00E008B9E2DF08950CE008B94E
:10018000DEDF0EE008B9DBDF089508E008B9D7DF4D
:100190000CE008B9D4DF089500E209D0089510E119
:1001A0001F9300E204D01F911A95D1F708950F9381
:1001B000102F02950F701F7008B9C6DF18B9C4DF81
:1001C0000F9108950F930093210113E018B9BCDF3C
:1001D0000091210110EF0123029508B9B5DF13E06A
:1001E00018B9B2DF009121011FE0012308B9ACDF8B
:1001F0000F9108950F930093210113E018B9A4DF24
:100200000091210110EF0123029508B99DDF0F91A4
:1002100008950F930093210113E018B995DF009121
:1002200021011FE0012308B98FDF0F910895C895C0
:10023000002D043089F0002D10912602103011F0AD
:100240000E941103102D02950F701F7008B97CDFFA
:1002500018B97ADF3196EBCF089526EA2A95F1F79F
:1002600000000000089531E229EC2A95F1F73A9553
:10027000D9F7089519E02CEB34EC3A95F1F72A956B
:10028000D9F71A95C1F7089510E128EF3BEF3A9599
:10029000F1F72A95D9F71A95C1F70895F0E1F4DF3F
:1002A000A895FA95E1F708955BDFF0E0E2ECBFDF97
:1002B000089556DFF0E0EEECBADF08950F930F9348
:1002C00002950F70F0E0ECEEE00F08F4F395C8959E
:1002D000002D6DDF0F910F70F0E0ECEEE00F08F4F1
:1002E000F395C895002D63DF0F9108952098289805
:1002F00008955F9A08955F9808955E9A08955E98AC
:1003000008958827579F402C512C469F202C312C34
:10031000569F300C411C581E479F300C411C581EE4
:100320000895400F511F621F731F08951127222740
:100330003327BB27AA279927881BC1E277956795A2
:1003400057954795CA9551F020F4800F911FA21F31
:10035000B31FB795A79597958795F0CF0895002778
:1003600011272227332744275527662777278827F1
:100370009927AA27BB27CC27DD27EE27FF2708953B
:10038000A89572E486ED9BEE9A95F1F78A95D9F7D8
:100390007A95C1F773E07A95F1F700000895F1E0DE
:1003A000E0E00027019300E013E0E017F107C9F750
:1003B0000895DD27CC275527662777278827992793
:1003C000AA27C8E20ED0000F111F221F331F441F9F
:1003D000551F661F771F881F991FAA1FCA9591F77F
:1003E00008955F935F70553010F05D5FD52FD52F66
:1003F0005F91507F503508F0505D5D0F6F936F70C7
:10040000653010F06D5FD62FD62F6F91607F60350D
:1004100008F0605D6D0F7F937F70753010F07D5F29
:10042000D72FD72F7F91707F703508F0705D7D0FCB
:100430008F938F70853010F08D5FD82FD82F8F91CC
:10044000807F803508F0805D8D0F9F939F70953081
:1004500010F09D5FD92FD92F9F91907F903508F094
:10046000905D9D0FAF93AF70A53010F0AD5FDA2FA8
:10047000DA2FAF91A07FA03508F0A05DAD0F0895F1
:1004800011272227332788279927AA27BB1BC1E2D8
:10049000441F551F661F771FCA9571F0881F991F4B
:1004A000AA1FBB1F801B910BA20BB30B88F7800FF9
:1004B000911FA21FB31FECCF40955095609570958A
:1004C0000895F999FECF112711BD12BDF1E0EBE2BD
:1004D000019100BD04E00FBBFA9AF99AF999FECF99
:1004E000139511BD1230A1F711270895F999FECF88
:1004F0001127009134010F3F19F402E000933401F9
:10050000112712BD01BDF1E0E9E0019100BD04E059
:100510000FBBFA9AF99AF999FECF139511BD1130D4
:10052000A1F7009134010395009334010895F999DE
:10053000FECFAA27BB27A1BDB2BDF1E0EBE2F89A3E
:10054000F899FECF00B501931196A1BDB2BDA230BE
:10055000B1F70895BB27AA27F999FECFB2BDA1BD77
:100560000FEF00BDFA9AF99AA395B1F70895F1DD5E
:10057000F7DDF0E0EAED5BDE91DEEBDDF1DDFDD1F4
:10058000F999FECFCC27A0913401AA95BB27A130C1
:1005900009F1A1BDB2BDF89AF899FECF00B58EDE83
:1005A000F7D1AA95A1BDA130A9F0C395C83099F79C
:1005B000CC27DDDDF999FECFCC27F89AF899FECF4C
:1005C00000B57CDEE5D1AA95A1BDA13019F0C39597
:1005D000C83099F70E94BD0461DE089503B1087028
:1005E000003019F010E000E402C010E001E81093C0
:1005F000C5000093C40008E10093C10006E0009329
:10060000C20002E00E9411030E94BD0403E00E94A8
:10061000110308951091C00017FFFCCF0091C60090
:1006200008951091C00015FFFCCF0093C6000895F7
:10063000A895F0DF0734E1F7EDDF0734C9F7EADF0B
:100640000134B1F72227E6DF0C32E9F72395273092
:10065000D1F7E0DF00933601DDDF00933701089525
:10066000009136010053000F000F000F000F109192
:1006700037011053010F033024F40BB10F770BB97E
:1006800008950BB100680BB908950091C00007FFF1
:100690000895CEDF7ADD03E58ADD0DE388DD009184
:1006A000360185DD0091370182DD0091360100536E
:1006B000000F000F000F000F109137011053010FB2
:1006C000033014F45F9808955F9A08950091C00074
:1006D00007FF0895ADDF59DD03E569DD0E941103D1
:1006E0000DE365DD0E9411030091360160DD0E947B
:1006F0001103009137015BDD0E941103089529DD8C
:100700000091C00007FF0895AAE096D029DD35D1F9
:10071000009120024CDD0E9411030091210247DD6F
:100720000E9411030AE343DD0E941103009122029B
:100730003EDD0E9411030091230239DD0E94110366
:100740000AE335DD0E9411030091240230DD0E948E
:100750001103009125022BDD0E9411031DDD0E9473
:10076000C20405E524DD0E94110304E520DD0E949A
:10077000110303E41CDD0E9411030091C00007FF78
:10078000FCCFAA9511F6E5DC0E94BD04AAE078D062
:10079000E7DCF3D0F2E0E0E422E00190002D0C323F
:1007A000E1F72A95D1F70190002D01DD0E94110398
:1007B0000190002DFCDC0E94110307E2F8DC0E948E
:1007C00011030190002D0C3221F0F1DC0E94110385
:1007D000F8CFE2DCD7D00190002DE9DC0E941103B4
:1007E000C6DC0E94BD0401900190002DE0DC0E9457
:1007F00011030190002DDBDC0E9411030190002DFC
:10080000D6DC0E94110307E2D2DC0E9411030190A2
:10081000002D0C3221F0CBDC0E941103F8CFBCDCA0
:10082000B1D00190002DC3DC0E9411030E94BD04D1
:10083000AA9509F40895ABCFA895ECDE0734E1F74B
:10084000E9DE0734C9F7E6DE0134B1F72227E2DE3C
:100850000C32E9F723952130D1F7DCDE009320023A
:10086000D9DE00932102D6DE00932202D3DE00936C
:100870002302D0DE00932402CDDE009325020895EA
:10088000A895C8DE0734E1F7C5DE0734C9F7C2DE34
:100890000134B1F7F2E0E0E4BDDE002E0192043253
:1008A00009F0FACF089500912201003011F46AD0C6
:1008B00003C00091220151D0009123013FD000914B
:1008C00024013CD00091250139D00091260140D06F
:1008D0000EE2A7DE0091260140D0009127012ED024
:1008E00051D008E49EDE0AE79CDE0E94BD04089514
:1008F00000912201007F003011F444D003C0009128
:10090000220126D00091220128D00091230116D087
:100910000091240113D00091250110D00EE281DE58
:10092000009126010BD00091270108D02BD008E4BC
:1009300078DE0AE776DE0E94BD0408950F930295E3
:100940000F70005D6EDE0F910F70005D6ADE08951E
:1009500002950F70005D65DE08950F70005D61DE29
:100960000895C895002D043021F0002D5ADE3196EF
:10097000F8CF08950CE255DE08950DE052DE0AE04E
:1009800050DE08950F9300E20E9411030F91089525
:100990000F930F9302950F70F0E0ECEEE00F08F468
:1009A000F395C895002D3DDE0F910F70F0E0ECEE51
:1009B000E00F08F4F395C895002D33DE0F910895EC
:1009C0000FEF0DBF08E00EBFEADC01D2C8DC03E187
:1009D00004B9009505B90FEF07B902EE0AB9009501
:1009E0000BB9002708B982DC00E00DBB0BE00093D7
:1009F000690002E000933401F1DD01E0009326027A
:100A00007DDBA7DBADDBF0E0E8E611DCB6DFAFDBDA
:100A1000F0E0EAE70CDCB1DF41DC9BDB0FEF009399
:100A200087000FEF0093860002E80093800008E142
:100A30000093810000E30093890000E000938800A8
:100A40004B9909C086DB8CDBF0E0EEE9F0DB0E941D
:100A5000BD0480DD23DC01E000936E0000E005BDF5
:100A6000002706BDA89508E10093600006E4009306
:100A700060006FDB20D000910401013009F40DC04B
:100A800000270093260210DC87DBFFDD0AE00093DD
:100A90002E0100E000932F01A8C100270093260239
:100AA00008DC7ADB79DBF1DD0AE000932E0100E05F
:100AB00000932F019AC14C9B04C001E000930401F4
:100AC000089500270093040108950FEFA017B007C1
:100AD000B9F11196009104010F93EDDF109104011B
:100AE0000F91011751F00BDC48DFE19A02E00CBBDB
:100AF00000E005BD01E005BB39C100912702039567
:100B0000009327020F3FD9F4009128020395009328
:100B100028020430A1F40BB106FF09C00BB10F7B12
:100B20000BB90027009327020093280218950BB1F8
:100B300000640BB900270093270200932802189540
:100B40002196AA27BB2718950E94BD04A8950027C7
:100B500000933801209828980BB10F7B0BB90FEF49
:100B600000932602CCDD03DD0BDCA895E19A02E0C0
:100B70000CBB00E005BD002706BD009300010093FB
:100B80000101EDDB0FEF0DBF08E00EBF01E005BB7B
:100B9000E19A02E00CBB00E005BD01E005BBE6C048
:100BA000009101011091000120912F0130912E013F
:100BB0001317020769F0A89501E005BDF091010146
:100BC000E09100013196F0930101E0930001189546
:100BD00000E005BD00270093010100930001A895E6
:100BE000F8940BB10F7B0BB95B2F4A2F71E060E0DB
:100BF00088DB2F923F924F925F92DF93CF93AFDBD0
:100C0000CF91DF914C2F5D2F31E093DB3F912F91FE
:100C10001F910F919927400F511F621F731F891F4A
:100C200006B51127222733279927400F511F621F2E
:100C3000731F891FA89B0CC001E005BB002711E0B2
:100C4000222733279927400F511F621F731F891FC7
:100C50004093090150930A0160930B0170930C01BA
:100C600080930D0140910D0130910C0120910B01F9
:100C700010910A01009109019CDB509327016093B8
:100C80002601709325018093240190932301A09362
:100C90002201009104010130A9F50FEF0093260213
:100CA0005FDA07DB00270093260276DA75DA62DE68
:100CB0000DDD60DEF8DD5BDA72DA59DA00912201CF
:100CC000003011F469DA03C000912201A2DA009128
:100CD000230178DA0091240175DA0091250172DA96
:100CE0000091260187DA0EE262DA0091260191DA9C
:100CF0000091270167DA50DA4FDA08E458DA0AE798
:100D000056DA33D00FEF009326022ADACDDA002725
:100D10000093260241DA2EDED9DC2CDEE9DD27DA6B
:100D20003EDA25DA00912201007F003011F434DA36
:100D300003C0009122015EDA009122016ADA00917B
:100D4000230140DA009124013DDA009125013ADACD
:100D50000EE22DDA0091260135DA0091270132DA10
:100D60001BDA08E424DA0AE722DAC0DBF8DA06BD87
:100D700000930001009301010FEF0DBF08E00EBFCB
:100D800079CEF894A8950BB10F730BB90E94B000FF
:100D90000E94BD04F0E0ECE80E9417010E94B70039
:100DA0000E94BD04F0E0E0EB42DA0E94BD0476DA76
:100DB00001E005BB00E005BDD2DA002706BD0093C7
:100DC000000100930101A8954A99FDCF52CEF894F5
:100DD000A89504B7077F04BF0091600008610093E5
:100DE000600000E000936000089500E00DBBA8954E
:100DF00004B7077F04BF7894C3DAA895C1DAA89531
:100E00004A99FECFA8954A9BFECFA895A8DA03E0A1
:100E10000CBB01E00DBBA895000000000000000025
:100E200000000000000000000000000000000000C2
:100E300000000000000000000000000000000000B2
:100E400000000000000000000000000000000000A2
:100E50000000000000000000000000000000000092
:081E100000000000000000C802
:00000001FF
